{
  "contractName": "SimpleMessage",
  "abi": [
    {
      "anonymous": false,
      "inputs": [
        {
          "indexed": false,
          "internalType": "string",
          "name": "_message",
          "type": "string"
        }
      ],
      "name": "messageChange",
      "type": "event"
    },
    {
      "inputs": [
        {
          "internalType": "string",
          "name": "_message",
          "type": "string"
        }
      ],
      "name": "setMessage",
      "outputs": [],
      "stateMutability": "nonpayable",
      "type": "function"
    }
  ],
  "bytecode": "0x608060405234801561001057600080fd5b50610424806100206000396000f3fe608060405234801561001057600080fd5b506004361061002b5760003560e01c8063368b877214610030575b600080fd5b61004a600480360381019061004591906101b0565b61004c565b005b806000908051906020019061006292919061009d565b507f8df33f3aa38cef9295966d6a784f734c586ff2162340a9aad07ff132e2d8049a816040516100929190610232565b60405180910390a150565b8280546100a990610308565b90600052602060002090601f0160209004810192826100cb5760008555610112565b82601f106100e457805160ff1916838001178555610112565b82800160010185558215610112579182015b828111156101115782518255916020019190600101906100f6565b5b50905061011f9190610123565b5090565b5b8082111561013c576000816000905550600101610124565b5090565b600061015361014e84610279565b610254565b90508281526020810184848401111561016f5761016e6103ce565b5b61017a8482856102c6565b509392505050565b600082601f830112610197576101966103c9565b5b81356101a7848260208601610140565b91505092915050565b6000602082840312156101c6576101c56103d8565b5b600082013567ffffffffffffffff8111156101e4576101e36103d3565b5b6101f084828501610182565b91505092915050565b6000610204826102aa565b61020e81856102b5565b935061021e8185602086016102d5565b610227816103dd565b840191505092915050565b6000602082019050818103600083015261024c81846101f9565b905092915050565b600061025e61026f565b905061026a828261033a565b919050565b6000604051905090565b600067ffffffffffffffff8211156102945761029361039a565b5b61029d826103dd565b9050602081019050919050565b600081519050919050565b600082825260208201905092915050565b82818337600083830152505050565b60005b838110156102f35780820151818401526020810190506102d8565b83811115610302576000848401525b50505050565b6000600282049050600182168061032057607f821691505b602082108114156103345761033361036b565b5b50919050565b610343826103dd565b810181811067ffffffffffffffff821117156103625761036161039a565b5b80604052505050565b7f4e487b7100000000000000000000000000000000000000000000000000000000600052602260045260246000fd5b7f4e487b7100000000000000000000000000000000000000000000000000000000600052604160045260246000fd5b600080fd5b600080fd5b600080fd5b600080fd5b6000601f19601f830116905091905056fea26469706673582212204940584749a1403a45fa3591b49dafb07cabb86a61994e366300bde4df26984b64736f6c63430008070033",
  "immutableReferences": {},
  "source": "// SPDX-License-Identifier: MIT\r\npragma solidity ^0.8.7;\r\n\r\ncontract SimpleMessage {\r\n    event messageChange(string _message);\r\n\r\n    string message;\r\n\r\n    function setMessage(string memory _message) public {\r\n        message = _message;\r\n        emit messageChange(_message);\r\n    }\r\n}\r\n",
  "sourcePath": "C:\\Users\\admin\\Desktop\\dev\\nextjs-dapp-starter\\contracts\\SimpleMessage.sol",
  "compiler": {
    "name": "solc",
    "version": "0.8.7+commit.e28d00a7.Emscripten.clang"
  },
  "schemaVersion": "3.4.3",
  "updatedAt": "2021-08-31T11:39:00.882Z",
  "networkType": "ethereum",
  "devdoc": {
    "kind": "dev",
    "methods": {},
    "version": 1
  },
  "userdoc": {
    "kind": "user",
    "methods": {},
    "version": 1
  }
}